:100BFF00013E010E3084B72C25174544A704055C30
:030C0F0076065412
:10000E007F797E00120BD4EF24FF920530052FE48A
:10001E00F53FE53F25E02440F8760008760A053FD7
:10002E00E53FB41CEDE4F523F522C209F524F525D0
:10003E0075260AF52775280A1209AD0200FCE4F5AB
:10004E003FAF3F7E00120BD4EF7F00FEC007C0060D
:10005E00E53F2401FFE433FE120BD4EFFDD0E0FEAA
:10006E00D0E04DFFE53FC31325E02440F8A6060877
:10007E00A607053F053FE53FC3943840C47F787E11
:10008E0000120BD48F237F7A7E00120BD4EF7F00E9
:10009E00FEC007C0067F7B7E00120BD4EFFDD0E0C2
:1000AE00F525D0E04DF5267F7C7E00120BD4EF7F38
:1000BE0000FEC007C0067F7D7E00120BD4EFFDD080
:1000CE00E0F527D0E04DF5287F7E7E00120BD48F11
:1000DE00247F7F7E00120BD4EF24FF9209E5236468
:1000EE00066005E523B40706E52324FAF522759488
:1000FE000175B2FF758911D2AFD28CD2A9758C3C25
:10010E00758AB0E52325E02440F8E6F57808E6F593
:10011E0079D20DE523D394074006C280C20D800626
:06012E00E523041392809A
:100134000508E508C394144005E4F508B20FE52367
:10014400D394074003200D07E523C39408501CD320
:10015400E5799400E57894004011E524600D0509E3
:10016400E50994644005E4F509B20C12028D120706
:10017400DF120B68E52364107028200E0B20920810
:10018400B202A2029280D20E309202C20E20940BCE
:10019400200A08B202A2029280D20A309492C20AC1
:1001A400808EE52364086012E5236409600CE5236E
:1001B400640C6006E523640D7052300D03020134B3
:1001C400309203020134E4F53F120B68053FE53F2A
:1001D400C3940A40F4309203020134C203E5232598
:1001E400E02440F8E6F57808E6F579C200D20DE59A
:1001F40023C3940CE5235003048000139280200B46
:1002040003020134C20B1209AD020134309203021D
:100214000134E4F53F120B68053FE53FC3940A40FF
:10022400F4309203020134E523D39417400474F4A8
:100234008009E523D39411400674F02523F523E5C2
:100244002364117003020134E52364066005E52389
:10025400B40705E4F52BF52CE52325E02440F8E666
:10026400F57808E6F579C200D20DC203E523C394FC
:100274000CE5235003048000139280200B03020139
:0602840034C20B1209ADAB
:03028A000201343A
:10028D001204D12000030204D0E52960030204D03A
:10029D00309503020428F53F120B68053FE53FC377
:1002AD00940A40F4309503020428D207D201057A4E
:1002BD00E57AB40A03E4F57A200803020371E53EFA
:1002CD0024FE602A14606B24026003020428E522D8
:1002DD0025E02425F8E6FE08E6FF7C007D64120A81
:1002ED00B2E57A75F064A42DFFE5F03C806CE52253
:1002FD0025E02425F8E6FE08E6FF7C007D64120A61
:10030D00B27C007D64120AA0AC06AD07E57A75F0EB
:10031D000AA42DFBE5F03CFAE52225E02425F8E6BC
:10032D00FE08E6FF7C007D0A120AB2ED2BFFEC3AC7
:10033D008028E52225E02425F8E6FE08E6FF7C006E
:10034D007D0A120AB2E52225E02425F8E6FE08E62C
:10035D00257AFFE43ECFC39DCF9CFEE52225E02408
:10036D0025020422E53E24FE6031146079240260EA
:10037D0003020428E52325E02440F8E6FE08E6FF05
:10038D007C007D64120AB2E57A75F064A42DFFE558
:10039D00F03CFEE52325E02440807AE52325E0248A
:1003AD0040F8E6FE08E6FF7C007D64120AB27C0090
:1003BD007D64120AA0AC06AD07E57A75F00AA42D8E
:1003CD00FBE5F03CFAE52325E02440F8E6FE08E6DF
:1003DD00FF7C007D0A120AB2ED2BFFEC3AFEE523FD
:1003ED0025E02440802FE52325E02440F8E6FE0893
:1003FD00E6FF7C007D0A120AB2E52325E02440F8D1
:10040D00E6FE08E6257AFFE43ECFC39DCF9CFEE5D0
:10041D002325E02440F8A60608A60730940302041D
:10042D00D0E4F53F120B68053FE53FC3940A40F455
:10043D003094030204D0D201D207053EE53EB40448
:10044D0003753E01300825E53E24FE600F1460144F
:10045D002402706FE52225E024258023E52225E086
:10046D002425802DE52225E024258048E53E24FE27
:10047D0060191460392402704AE52325E02440F800
:10048D00E6FE08E6FF7C007D64801DE52325E02463
:10049D0040F8E6FE08E6FF7C007D64120AB27E009D
:1004AD007F0ACFCDCFCECCCE120AB28F7A22E523E2
:1004BD0025E02440F8E6FE08E6FF7C007D0A120ADE
:0404CD00B28D7A2250
:1007DF00E529B4020F757BFF757CFF743C2524F867
:1007EF00E6F57D22200003020877200154E52970E9
:1007FF004E30080A757BFF757CFF853B7D22E52314
:10080F0060116401600DE523D394074010E5239434
:10081F000C500A757BFF853A7C757DFF22E523D34B
:10082F009411400A757BFF853A7C85327D22E52342
:10083F00C394105044757BFF853A7C85317D2280AF
:10084F0032300808E52225E024258006E52325E03F
:10085F002440F8E6F57808E6F57920041C300F16E9
:10086F00747A253EF876FF22E52364106005E523B0
:0A087F00B41103020A35120B072220
:03000B000208895F
:10088900C0E0C0F0C083C082C0D075D000C000C035
:1008990001C002C003C004C005C006C007758C3C76
:1008A900758AB0209404052A8003752A00E52AC3B5
:1008B900941E4008B209752A001209ADE523B41146
:1008C90007209204D280800AE523B41105309202F0
:1008D900C280300D28052EE52E7002052DE524B4C1
:1008E900010DC3E52E9458E52D94024010800BC3E9
:1008F900E52E940AE52D9400400312067DD007D019
:1009090006D005D004D003D002D001D000D0D0D079
:0809190082D083D0F0D0E0325F
:100B6800200934E57BF4F5B0C281120BA0D281E5EF
:100B78007CF4F5B0C290120BA0D290E524600C2052
:100B88000009300C06E57D54FB8002E57DF4F5B0E4
:080B9800C291120BA0D29122C0
:100B0700C3E579940AE5789400500885307B8530F1
:100B17007C803BC3E5799464E57894005005853083
:100B27007B8012AE78AF797C007D64120AB2743094
:100B37002FF8E6F57BAE78AF797C007D0A120AB212
:100B47007C007D0A120AB274302DF8E6F57CAE7887
:100B5700AF797C007D0A120AB274302DF8E6F57D74
:010B6700226B
:100A3500E5232401F579E433F578C3E579940AE5EE
:100A45007894005008757BFF757CFF803BC3E57982
:100A55009464E57894005005757BFF8012AE78AFFD
:100A6500797C007D64120AB274302FF8E6F57BAE0E
:100A750078AF797C007D0A120AB27C007D0A120AE1
:100A8500B274302DF8E6F57CAE78AF797C007D0A3E
:0B0A9500120AB274302DF8E6F57D2245
:040BA0007F037E0051
:100BA4000000EF1FAC0670011E4C600A7D067CD26B
:060BB400DCFEDDFC80EC1C
:010BBA002218
:1004D100E4FBFA30930302067C7F1EFE120BA4306C
:1004E100930302067C0B7F0A7E00120BA43093F566
:1004F100EBC39432400302066B7F1E7E00120BA4F5
:100501000A7F0A7E00120BA4EAC3942850032093A9
:10051100EF7F197E00120BA43093FDEAC3942840AB
:10052100030205BDE4F529C204D207C201E5239403
:1005310017400474F48009E523D39411400674F044
:100541002523F523E52364066006E5236407702768
:10055100E52F7006C208752F0122E52FB4010A7438
:10056100102523F523752F0222E52F640260030273
:10057100067CF52FD20822E523D394014016E5230A
:1005810094065010200303D2032220030302067CA9
:1005910074108021E523D3940B500302067CE523DC
:1005A1009410400302067C200303D203222003039C
:1005B10002067C740C2523F523C20322C280C203E8
:1005C100C208C20430075DC207C20BD204E4F52B96
:1005D100F52CE523D39417400474F48009E523D363
:1005E1009411400674F02523F523E523041392802A
:1005F100E523D394074002C280E52364106067E5D8
:100601002364116061E52325E02440F8E6F57808CC
:10061100E6F579E523D394074004C20D8002D20D9B
:10062100C200803FE529B4020530000215233000E5
:100631000EE523D394104005E4F52380020523E55C
:100641002364066005E523B40706E52324FAF522B1
:10065100D20BC201C20DD200E52364106005E5236F
:10066100B411031209AD752901227529022006066C
:0B067100752401D20622E4F524C20625
:01067C00225B
:1009AD00E4FFFE120BEBE4F53FE53FC31325E02416
:1009BD0040F8E6FE08EEAF3F120BBBE53FC3132533
:1009CD00E02440F808E6FDE53F2401FFE433FE1284
:1009DD000BBE053F053FE53FC3943840CCAD237FAB
:1009ED00787E00120BBEE4FD7F79FE120BBEE5256D
:1009FD007F7A120BBBE526FD7F7B7E00120BBEE5D9
:100A0D0027FD7F7C7E00120BBEE528FD7F7D7E00DD
:100A1D00120BBEAD247F7E7E00120BBEA209E43305
:080A2D00FD7F7F7E00020BBE7D
:10067D00E4F52DF52EE579157970021578E57945B6
:10068D007860030207DEE523B4100040030207DEA5
:10069D009006A4F82828730206D40207870206D70D
:1006AD000206DF0206F00206E7020744020708020F
:1006BD00078502078702078902078702079302074A
:1006CD00A20207B10207C2020789200302806B0252
:1006DD0007D820030280270207BE200302801FC215
:1006ED008080072003028052D280E52325E024403C
:1006FD00F8E6F57808E6F579C20322200304D280E6
:10070D00803AC280E52325E02440F8E6F57808E636
:10071D00F579C203052CE52C7002052B65287004B4
:10072D00E52B65276009E528452760030207DEE410
:10073D00F52BF52CC20D2220030AC280E52325E0FE
:10074D002460807CD280E52325E02440F8E6F5780E
:10075D0008E6F579C203052CE52C7002052B6526FC
:10076D007004E52B65256006E52645257063E4F5E7
:10077D002BF52CC20DC2802280028005C280C20DD5
:10078D0022D280C20D2220030AD280E52325E02447
:10079D0058802D801C20030AC280E52325E02458B3
:1007AD00801E802720030AD280E52325E02458806F
:1007BD000FC2808018200313C280E52325E0245842
:1007CD00F8E6F57808E6F579D20322D280C203C2A5
:0207DD000D22EB
:0D0C1300E4F5C7F5C5F5C675C380F5C4222C
:100BD40075C78275C5018FC48EC375C65A75C6A5FF
:060BE40000AFC2120C1369
:010BEA0022E8
:030BBB00FD7E00BC
:100BBE0075C78275C5028FC48EC38DC275C65A7530
:060BCE00C6A500020C1395
:100BEB0075C78275C5038FC48EC375C65A75C6A5E6
:040BFB0000020C13D5
:03000000020921D1
:0C092100787FE4F6D8FD75817D0209683E
:100AA000EF8DF0A4A8F0CF8CF0A428CE8DF0A42E6A
:020AB000FE2224
:100AB200BC000BBE0029EF8DF084FFADF022E4CC28
:100AC200F875F008EF2FFFEE33FEEC33FCEE9DECF1
:100AD200984005FCEE9DFE0FD5F0E9E4CEFD22ED37
:100AE200F8F5F0EE8420D21CFEADF075F008EF2F81
:100AF200FFED33FD4007985006D5F0F222C398FD72
:050B02000FD5F0EA220E
:10092D0002000EE493A3F8E493A34003F68001F2D2
:10093D0008DFF48029E493A3F85407240CC8C333CB
:10094D00C4540F4420C8834004F456800146F6DF9A
:10095D00E4800B0102040810204080900BFFE47E20
:10096D00019360BCA3FF543F30E509541FFEE4938F
:10097D00A360010ECF54C025E060A840B8E493A356
:10098D00FAE493A3F8E493A3C8C582C8CAC583CA81
:10099D00F0A3C8C582C8CAC583CADFE9DEE780BE39
:010C120000E1
:00000001FF
